:100000000C942A000C9457020C9488020C94B902A8
:100010000C9447000C9447000C9447000C94470044
:100020000C9447000C9447000C9447000C94470034
:100030000C9447000C9447000C9447000C94470024
:100040000C9447000C9447000C9447000C94470014
:100050000C94470011241FBECFE5D8E0DEBFCDBF12
:1000600010E0A0E6B0E0E4ECF9E002C005900D92EB
:10007000A63CB107D9F720E0A6ECB0E001C01D9284
:10008000A23DB207E1F70E94B6030C94E0040C9481
:100090000000CF93C82F40E060E082E00E94990109
:1000A00040E061E082E00E9499016C2F607F80E077
:1000B0000E941C0241E062E082E00E94990183EF0D
:1000C00091E00197F1F700C0000040E062E082E0BB
:1000D0000E94990192E49A95F1F700C080E1C89FCF
:1000E000B001112480E00E941C0241E062E082E045
:1000F0000E94990183EF91E00197F1F700C00000A1
:1001000040E062E082E00E949901CF910895CF9390
:10011000C82F41E060E082E00E94990140E061E088
:1001200082E00E9499016C2F607F80E00E941C0297
:1001300041E062E082E00E94990183EF91E0019743
:10014000F1F700C0000040E062E082E00E94990107
:1001500092E49A95F1F700C080E1C89FB0011124A4
:1001600080E00E941C0241E062E082E00E9499016E
:1001700083EF91E00197F1F700C0000040E062E0FA
:1001800082E00E949901CF9108950F931F93CF931E
:10019000DF938C01C0E0D0E003C00E94870021966D
:1001A000F801EC0FFD1F80818111F7CFDF91CF9116
:1001B0001F910F910895882329F0813011F4605C1C
:1001C00001C060E080E8860F0E9449000895DF9238
:1001D000EF92FF920F931F93CF93DF938C01F62E34
:1001E000E42ED22E862F880F880F880F80640E94FD
:1001F0004900C0E0D0E007C0F801EC0FFD1F80818E
:100200000E9487002196C830D105B4F36D2D8E2D44
:100210000E94DB008F2D0E948700DF91CF911F91FC
:100220000F91FF90EF90DF9008958F929F92AF9281
:10023000BF92CF92DF92EF92FF92CF934B015C017E
:1002400021E0C12C11C0C3942C2D30E040E050E0DF
:100250006AE070E080E090E00E9452049B01AC01F3
:10026000C501B4010E94A4042111EDCFD12C81E07D
:10027000C81AD1080D2C000CEE08FF0828C0A701F1
:1002800096016AE070E080E090E00E9452049B01D9
:10029000AC01C501B4010E94A404C22FA7019601BC
:1002A0006AE070E080E090E00E9452049B01AC01A3
:1002B000C501B4010E94A4044B015C0180E38C0FD2
:1002C0000E94870081E0C81AD108E108F108FF20E8
:1002D000B4F6CF91FF90EF90DF90CF90BF90AF90AA
:1002E0009F908F90089581E00E94490008958FE0CB
:1002F00097E20197F1F700C0000083E30E944900F4
:1003000082E30E94490088E20E9449009DE09A959C
:10031000F1F78CE00E9449008DE08A95F1F781E0C9
:100320000E94490083EF91E00197F1F700C00000BF
:100330000895683008F078C041113CC0813099F0D0
:1003400028F08230E9F0833041F170C02BB381E0B6
:1003500090E002C0880F991F6A95E2F7809582238A
:100360008BBB80E0089528B381E090E002C0880F45
:10037000991F6A95E2F78095822388BB80E00895F3
:1003800025B381E090E002C0880F991F6A95E2F7DB
:100390008095822385BB80E0089522B381E090E0C0
:1003A00002C0880F991F6A95E2F78095822382BB6D
:1003B00080E008954130E1F5813091F028F08230FD
:1003C000D9F0833029F136C02BB381E090E002C030
:1003D000880F991F6A95E2F7822B8BBB80E0089506
:1003E00028B381E090E002C0880F991F6A95E2F778
:1003F000822B88BB80E0089525B381E090E002C0A5
:10040000880F991F6A95E2F7822B85BB80E00895DB
:1004100022B381E090E002C0880F991F6A95E2F74D
:10042000822B82BB80E0089581E0089581E00895E9
:1004300081E0089581E00895813049F028F082300C
:1004400049F0833051F00CC06BBB80E0089568BB6D
:1004500080E0089565BB80E0089562BB80E0089568
:1004600081E0089585B7826085BF85B78E7F85BF9F
:100470008BB780648BBF089585B7886085BF85B7CB
:100480008B7F85BF8BB780688BBF089584B78F7BC8
:1004900084BF8BB780628BBF0895009731F0909333
:1004A000CB008093CA0080E0089582E008951F92F7
:1004B0000F920FB60F9211242F933F934F935F9398
:1004C0006F937F938F939F93AF93BF93EF93FF931C
:1004D000E091CA00F091CB000995FF91EF91BF9197
:1004E000AF919F918F917F916F915F914F913F91CC
:1004F0002F910F900FBE0F901F901895009731F01D
:100500009093C9008093C80080E0089582E0089528
:100510001F920F920FB60F9211242F933F934F9378
:100520005F936F937F938F939F93AF93BF93EF935B
:10053000FF93E091C800F091C9000995FF91EF91F8
:10054000BF91AF919F918F917F916F915F914F91EB
:100550003F912F910F900FBE0F901F90189500970D
:1005600031F09093C7008093C60080E0089582E048
:1005700008951F920F920FB60F9211242F933F935D
:100580004F935F936F937F938F939F93AF93BF939B
:10059000EF93FF93E091C600F091C7000995FF919A
:1005A000EF91BF91AF919F918F917F916F915F91EB
:1005B0004F913F912F910F900FBE0F901F90189564
:1005C0008FB780688FBF089581E08093D000089531
:1005D00081E08093CF0008950E94730181E08093B1
:1005E000CE00089560E080E00E94DB0083E790E0A9
:1005F0000E94C50060E081E00E94DB008FE790E090
:100600000E94C5002FE38DE093E021508040904090
:10061000E1F700C000000E9473010895813009F0E5
:1006200051C082E0809360008091CD008F5F809305
:10063000CD000E94730160E080E00E94DB008DE845
:1006400090E00E94C50060E081E00E94DB006091C4
:10065000CD0070E080E090E00E9415018CE990E010
:100660000E94C5006091CC0070E080E090E00E94A4
:1006700015012FE38DE093E0215080409040E1F799
:1006800000C000000E94730160E080E00E94DB0077
:1006900080EA90E00E94C50060E081E00E94DB00FB
:1006A0008EEA90E00E94C5002FE38DE093E0215098
:1006B00080409040E1F700C000000E94730110925A
:1006C000CE000895823009F050C081E08093600030
:1006D0008091CC008F5F8093CC000E94730160E01A
:1006E00080E00E94DB0087EB90E00E94C50060E0A4
:1006F00081E00E94DB006091CD0070E080E090E03E
:100700000E9415018CE990E00E94C5006091CC0028
:1007100070E080E090E00E9415012FE38DE093E00F
:10072000215080409040E1F700C000000E9473011A
:1007300060E080E00E94DB0080EA90E00E94C5005B
:1007400060E081E00E94DB008EEA90E00E94C5003C
:100750002FE38DE093E0215080409040E1F700C00E
:1007600000000E9473011092CE0008950E94870439
:100770000E9477010E94320284EE92E00E944D02B4
:100780000E943C0288EE92E00E947E020E94460295
:100790008CEE92E00E94AF020E94E0020E94F20200
:1007A000C1E08091CE008823E1F380916000823027
:1007B00031F41092D10081E08093610007C0813054
:1007C00029F48093D1008EE0809361001092D000D4
:1007D0001092CF0020E041E060E089E690E00E94C6
:1007E000E7002FE040E060E089E690E00E94E7004B
:1007F0008091D000813019F41092D0000AC081118C
:1008000008C080916100811104C082E00E940E0343
:10081000C8CF8091CF00813019F41092CF000AC068
:10082000811108C0809161008F3021F481E00E9425
:100830000E03B7CF209161002F3009F4C0E02111E1
:1008400001C0C1E04091D10062E082E690E00E94E8
:10085000E70087EA91E60197F1F700C00000609198
:1008600061008091D1000E94DB0080E20E9487003D
:100870008091D100811104C081E08093D10004C037
:10088000813011F41092D100CC2331F080916100BD
:100890008F5F809361009ECF809161008150809333
:1008A000610098CF4F925F926F927F928F929F924A
:1008B000AF92BF92CF92DF92EF92FF922B013C0159
:1008C00049015A0161E070E080E090E0C12CD12C38
:1008D00076010BC09B01AC01C301B2010E949404DC
:1008E0002FEFC21AD20AE20AF20AC814D904EA04A3
:1008F000FB0480F3FF90EF90DF90CF90BF90AF901C
:100900009F908F907F906F905F904F9008958FEFA2
:100910008ABB17BA87E084BB11BA1BBA84E088BBD4
:1009200015BA8CE082BB0895DB018F939F930E94E0
:10093000C604BF91AF91A29F800D911DA39F900D02
:10094000B29F900D11240895A1E21A2EAA1BBB1B81
:10095000FD010DC0AA1FBB1FEE1FFF1FA217B3078B
:10096000E407F50720F0A21BB30BE40BF50B661FA1
:10097000771F881F991F1A9469F760957095809565
:1009800090959B01AC01BD01CF0108950E94D10457
:10099000A59F900DB49F900DA49F800D911D1124D3
:1009A0000895A29FB001B39FC001A39F700D811D48
:1009B0001124911DB29F700D811D1124911D089568
:0409C000F894FFCFD9
:1009C40002010E1F1F1F1F1F0E0E1111110E040412
:1009D400040404507265737320423220546F005330
:1009E4007461727420506C6179696E6700506C6137
:1009F40079657220312077696E732100202F2000E1
:100A0400546F20706C617920616761696E00507267
:100A140065737320423200506C6179657220322014
:060A240077696E732100EA
:00000001FF
