S01000004144435F5441534B2E73726563BA
S11300000C942A000C9413030C943A030C9461038B
S11300100C9447000C9447000C9447000C94470040
S11300200C9447000C9447000C9447000C94470030
S11300300C9447000C9447000C9447000C94470020
S11300400C9443020C9447000C9447000C94470012
S11300500C94470011241FBECFE5D8E0DEBFCDBF0E
S113006010E0A0E6B0E0E6EBF8E002C005900D92E7
S1130070A236B107D9F720E0A2E6B0E001C01D9294
S1130080AE36B207E1F70E94DB010C9459040C94DC
S11300900000CF93C82F40E060E082E00E947A0223
S11300A040E061E082E00E947A026C2F607F81E090
S11300B00E94FD0241E062E082E00E947A0283EF46
S11300C091E00197F1F700C0000040E062E082E0B7
S11300D00E947A0292E49A95F1F700C080E1C89FE9
S11300E0B001112481E00E94FD0241E062E082E05F
S11300F00E947A0283EF91E00197F1F700C00000BB
S113010040E062E082E00E947A02CF910895CF93AA
S1130110C82F41E060E082E00E947A0240E061E0A2
S113012082E00E947A026C2F607F81E00E94FD02CF
S113013041E062E082E00E947A0283EF91E001975D
S1130140F1F700C0000040E062E082E00E947A0221
S113015092E49A95F1F700C080E1C89FB0011124A0
S113016081E00E94FD0241E062E082E00E947A02A6
S113017083EF91E00197F1F700C0000040E062E0F6
S113018082E00E947A02CF9108958F929F92AF925B
S1130190BF92CF92DF92EF92FF92CF934B015C011B
S11301A021E0C12C11C0C3942C2D30E040E050E07C
S11301B06AE070E080E090E00E94A6019B01AC013F
S11301C0C501B4010E94A6032111EDCFD12C81E019
S11301D0C81AD1080D2C000CEE08FF0828C0A7018E
S11301E096016AE070E080E090E00E94A6019B0125
S11301F0AC01C501B4010E94A603C22FA701960158
S11302006AE070E080E090E00E94A6019B01AC01EE
S1130210C501B4010E94A6034B015C0180E38C0F6D
S11302200E94870081E0C81AD108E108F108FF2084
S1130230B4F6CF91FF90EF90DF90CF90BF90AF9046
S11302409F908F90089581E00E94490008958FE067
S113025097E20197F1F700C0000083E30E94490090
S113026082E30E94490088E20E9449009DE09A9539
S1130270F1F78EE00E9449008DE08A95F1F781E064
S11302800E94490083EF91E00197F1F700C000005C
S11302900895AF92BF92CF92DF92EF92FF920F93A5
S11302A01F93CF93DF930F2EF8E8AF2EF02D0F2E70
S11302B0F3E1BF2EF02DC12CD12CE12CF12C00E068
S11302C010E0282F392F40E050E060E070E080E03B
S11302D090E00E94E2030AE00E943D04ADECBCEC15
S11302E00E94C803969587959695879596958795C8
S11302F0DF91CF911F910F91FF90EF90DF90CF90FE
S1130300BF90AF9008950F931F93CF93DF9300D0C6
S1130310CDB7DEB76115710589F08B011A82198298
S1130320BE016F5F7F4F0E94150289819A810E94EE
S11303304901F8019183808380E001C082E00F903D
S11303400F90DF91CF911F910F9108954F925F927B
S11303506F927F928F929F92AF92BF92CF92DF92D1
S1130360EF92FF922B013C0149015A0161E070E0D8
S113037080E090E0C12CD12C76010BC09B01AC0134
S1130380C301B2010E9496032FEFC21AD20AE20AF5
S1130390F20AC814D904EA04FB0480F3FF90EF9036
S11303A0DF90CF90BF90AF909F908F907F906F9091
S11303B05F904F9008950E948C030E9427010E9431
S11303C0FC010E94880362E670E082E00E948301DF
S11303D0609162007091630080E090E00E94C5002B
S11303E02FE986E891E0215080409040E1F700C079
S11303F000000E942301E7CF87B18F7787B987B1C7
S1130400806487B987B18F7D87B986B18F7D86B9BE
S113041086B1887F86B986B1876086B986B18860DF
S113042086B986B1806886B908959091600091304C
S113043011F56115710519F192E09093600097B17F
S1130440907E892B87B986B1806486B986B1877F0F
S113045086B9349BFECF86B1806186B986B1886047
S113046086B984B195B1FB019183808381E0809347
S1130470600080E00895923021F080E0089582E0E9
S1130480089584E008951F920F920FB60F921124DD
S11304902F933F934F935F936F937F938F939F9388
S11304A0AF93BF93EF93FF93E0916600F0916700E1
S11304B084B195B191838083E0916400F0916500EB
S11304C0309709F0099581E08093600086B1877FB9
S11304D086B9FF91EF91BF91AF919F918F917F91D9
S11304E06F915F914F913F912F910F900FBE0F909D
S11304F01F901895683008F078C041113CC08130D5
S113050099F028F08230E9F0833041F170C02BB3C8
S113051081E090E002C0880F991F6A95E2F7809508
S113052082238BBB80E0089528B381E090E002C071
S1130530880F991F6A95E2F78095822388BB80E033
S1130540089525B381E090E002C0880F991F6A9551
S1130550E2F78095822385BB80E0089522B381E091
S113056090E002C0880F991F6A95E2F78095822374
S113057082BB80E008954130E1F5813091F028F0AC
S11305808230D9F0833029F136C02BB381E090E07A
S113059002C0880F991F6A95E2F7822B8BBB80E01B
S11305A0089528B381E090E002C0880F991F6A95EE
S11305B0E2F7822B88BB80E0089525B381E090E0C8
S11305C002C0880F991F6A95E2F7822B85BB80E0F1
S11305D0089522B381E090E002C0880F991F6A95C4
S11305E0E2F7822B82BB80E0089581E0089581E0E8
S11305F0089581E0089581E00895813049F028F05C
S1130600823049F0833051F00CC06BBB80E0089518
S113061068BB80E0089565BB80E0089562BB80E01C
S1130620089581E008951F920F920FB60F9211243E
S11306302F933F934F935F936F937F938F939F93E6
S1130640AF93BF93EF93FF93E0916C00F0916D0033
S11306500995FF91EF91BF91AF919F918F917F91F8
S11306606F915F914F913F912F910F900FBE0F901B
S11306701F9018951F920F920FB60F9211242F936B
S11306803F934F935F936F937F938F939F93AF9316
S1130690BF93EF93FF93E0916A00F0916B0009958B
S11306A0FF91EF91BF91AF919F918F917F916F9146
S11306B05F914F913F912F910F900FBE0F901F901C
S11306C018951F920F920FB60F9211242F933F93F8
S11306D04F935F936F937F938F939F93AF93BF9346
S11306E0EF93FF93E0916800F09169000995FF9101
S11306F0EF91BF91AF919F918F917F916F915F9196
S11307004F913F912F910F900FBE0F901F9018950E
S11307108FB780688FBF08951ABA8FEF87BB84BBE9
S113072011BA1BBA18BA15BA82BB0895DB018F93AC
S11307309F930E94D703BF91AF91A29F800D911DFB
S1130740A39F900DB29F900D11240895A1E21A2E3B
S1130750AA1BBB1BFD010DC0AA1FBB1FEE1FFF1F61
S1130760A217B307E407F50720F0A21BB30BE40BB1
S1130770F50B661F771F881F991F1A9469F76095F8
S11307807095809590959B01AC01BD01CF010895B2
S1130790A29FB001B39FC001A39F700D811D1124BE
S11307A0911DB29F700D811D1124911D08950E9409
S11307B0C803A59F900DB49F900DA49F800D911D1B
S11307C011240895DF93CF931F930F939A9DF02DD7
S11307D0219FF00D8B9DF00D8A9DE02DF10D039F5F
S11307E0F00D029FE00DF11D4E9DE00DF11D5E9D8B
S11307F0F00D4F9DF00D7F936F93BF92AF925F9377
S11308004F93D5010E94C8038B01AC01D7010E940C
S1130810C803EB01E80FF91FD6010E9432042F919F
S11308203F91D6010E94C803C60FD71FE81FF91FC6
S1130830AF91BF910E9432042F913F910E94C8034F
S1130840C60FD71FE81FF91FD6010E94C803E60F81
S1130850F71F9801BE01CF0111240F911F91CF9171
S1130860DF9108950E94C803460F571FC81FD91F60
S113087008F43196089597FB10F8169400080F9326
S1130880083098F00850232F342F452F562F672F08
S1130890782F892F902DF4CF059497958795779588
S11308A0679557954795379527950A95AAF70F9118
S10908B00895F894FFCF47
S10508B601003B
S9030000FC
